{
  "_format": "hh-sol-artifact-1",
  "contractName": "Contract",
  "sourceName": "contracts/worldID.sol",
  "abi": [
    {
      "inputs": [
        {
          "internalType": "contract IWorldID",
          "name": "_worldId",
          "type": "address"
        }
      ],
      "stateMutability": "nonpayable",
      "type": "constructor"
    },
    {
      "inputs": [],
      "name": "InvalidNullifier",
      "type": "error"
    },
    {
      "inputs": [
        {
          "internalType": "address",
          "name": "input",
          "type": "address"
        },
        {
          "internalType": "uint256",
          "name": "root",
          "type": "uint256"
        },
        {
          "internalType": "uint256",
          "name": "nullifierHash",
          "type": "uint256"
        },
        {
          "internalType": "uint256[8]",
          "name": "proof",
          "type": "uint256[8]"
        }
      ],
      "name": "verifyAndExecute",
      "outputs": [],
      "stateMutability": "nonpayable",
      "type": "function"
    }
  ],
  "bytecode": "0x60c0604052600160a09081525034801561001857600080fd5b50604051610628380380610628833981810160405281019061003a91906100e9565b8073ffffffffffffffffffffffffffffffffffffffff1660808173ffffffffffffffffffffffffffffffffffffffff168152505050610116565b600080fd5b600073ffffffffffffffffffffffffffffffffffffffff82169050919050565b60006100a482610079565b9050919050565b60006100b682610099565b9050919050565b6100c6816100ab565b81146100d157600080fd5b50565b6000815190506100e3816100bd565b92915050565b6000602082840312156100ff576100fe610074565b5b600061010d848285016100d4565b91505092915050565b60805160a0516104ef610139600039600060e20152600060a501526104ef6000f3fe608060405234801561001057600080fd5b506004361061002b5760003560e01c8063e9b7055314610030575b600080fd5b61004a600480360381019061004591906102cc565b61004c565b005b60008083815260200190815260200160002060009054906101000a900460ff16156100a3576040517f5d904cb200000000000000000000000000000000000000000000000000000000815260040160405180910390fd5b7f000000000000000000000000000000000000000000000000000000000000000073ffffffffffffffffffffffffffffffffffffffff16633bc778e3847f000000000000000000000000000000000000000000000000000000000000000061012988604051602001610115919061037c565b6040516020818303038152906040526101d5565b866101523060405160200161013e919061037c565b6040516020818303038152906040526101d5565b876040518763ffffffff1660e01b8152600401610174969594939291906103c6565b60006040518083038186803b15801561018c57600080fd5b505afa1580156101a0573d6000803e3d6000fd5b50505050600160008084815260200190815260200160002060006101000a81548160ff02191690831515021790555050505050565b60006008826040516020016101ea91906104a2565b6040516020818303038152906040528051906020012060001c901c9050919050565b600080fd5b600073ffffffffffffffffffffffffffffffffffffffff82169050919050565b600061023c82610211565b9050919050565b61024c81610231565b811461025757600080fd5b50565b60008135905061026981610243565b92915050565b6000819050919050565b6102828161026f565b811461028d57600080fd5b50565b60008135905061029f81610279565b92915050565b600080fd5b6000819050826020600802820111156102c6576102c56102a5565b5b92915050565b60008060008061016085870312156102e7576102e661020c565b5b60006102f58782880161025a565b945050602061030687828801610290565b935050604061031787828801610290565b9250506060610328878288016102aa565b91505092959194509250565b60008160601b9050919050565b600061034c82610334565b9050919050565b600061035e82610341565b9050919050565b61037661037182610231565b610353565b82525050565b60006103888284610365565b60148201915081905092915050565b6103a08161026f565b82525050565b82818337600083830152505050565b6103c261010083836103a6565b5050565b60006101a0820190506103dc6000830189610397565b6103e96020830188610397565b6103f66040830187610397565b6104036060830186610397565b6104106080830185610397565b61041d60a08301846103b5565b979650505050505050565b600081519050919050565b600081905092915050565b60005b8381101561045c578082015181840152602081019050610441565b8381111561046b576000848401525b50505050565b600061047c82610428565b6104868185610433565b935061049681856020860161043e565b80840191505092915050565b60006104ae8284610471565b91508190509291505056fea26469706673582212201a758fc48a602cb0c813a0451a43cdd7230e4dba141a14b231f99b9bae47c23764736f6c634300080b0033",
  "linkReferences": {},
  "deployedLinkReferences": {}
}