{
  "_format": "hh-sol-artifact-1",
  "contractName": "Minting",
  "sourceName": "contracts/minting.sol",
  "abi": [
    {
      "anonymous": false,
      "inputs": [
        {
          "indexed": false,
          "internalType": "uint8",
          "name": "version",
          "type": "uint8"
        }
      ],
      "name": "Initialized",
      "type": "event"
    },
    {
      "anonymous": false,
      "inputs": [
        {
          "indexed": true,
          "internalType": "address",
          "name": "previousOwner",
          "type": "address"
        },
        {
          "indexed": true,
          "internalType": "address",
          "name": "newOwner",
          "type": "address"
        }
      ],
      "name": "OwnershipTransferred",
      "type": "event"
    },
    {
      "inputs": [],
      "name": "airdrop_erc",
      "outputs": [
        {
          "internalType": "contract IERC20",
          "name": "",
          "type": "address"
        }
      ],
      "stateMutability": "view",
      "type": "function"
    },
    {
      "inputs": [],
      "name": "collectERC20",
      "outputs": [],
      "stateMutability": "nonpayable",
      "type": "function"
    },
    {
      "inputs": [],
      "name": "owner",
      "outputs": [
        {
          "internalType": "address",
          "name": "",
          "type": "address"
        }
      ],
      "stateMutability": "view",
      "type": "function"
    },
    {
      "inputs": [],
      "name": "renounceOwnership",
      "outputs": [],
      "stateMutability": "nonpayable",
      "type": "function"
    },
    {
      "inputs": [
        {
          "internalType": "address",
          "name": "newOwner",
          "type": "address"
        }
      ],
      "name": "transferOwnership",
      "outputs": [],
      "stateMutability": "nonpayable",
      "type": "function"
    }
  ],
  "bytecode": "0x608060405234801561001057600080fd5b5061002d61002261003260201b60201c565b61003a60201b60201c565b6100fe565b600033905090565b60008060009054906101000a900473ffffffffffffffffffffffffffffffffffffffff169050816000806101000a81548173ffffffffffffffffffffffffffffffffffffffff021916908373ffffffffffffffffffffffffffffffffffffffff1602179055508173ffffffffffffffffffffffffffffffffffffffff168173ffffffffffffffffffffffffffffffffffffffff167f8be0079c531659141344cd1fd0a4f28419497f9722a3daafe3b4186f6b6457e060405160405180910390a35050565b6107538061010d6000396000f3fe608060405234801561001057600080fd5b50600436106100575760003560e01c8063715018a61461005c5780638da5cb5b14610066578063deb155a614610084578063f2fde38b1461008e578063feb12107146100aa575b600080fd5b6100646100c8565b005b61006e610150565b60405161007b9190610448565b60405180910390f35b61008c610179565b005b6100a860048036038101906100a39190610494565b61021d565b005b6100b2610315565b6040516100bf9190610520565b60405180910390f35b6100d061033b565b73ffffffffffffffffffffffffffffffffffffffff166100ee610150565b73ffffffffffffffffffffffffffffffffffffffff1614610144576040517f08c379a000000000000000000000000000000000000000000000000000000000815260040161013b90610598565b60405180910390fd5b61014e6000610343565b565b60008060009054906101000a900473ffffffffffffffffffffffffffffffffffffffff16905090565b600160009054906101000a900473ffffffffffffffffffffffffffffffffffffffff1673ffffffffffffffffffffffffffffffffffffffff1663a9059cbb3360646040518363ffffffff1660e01b81526004016101d79291906105fd565b6020604051808303816000875af11580156101f6573d6000803e3d6000fd5b505050506040513d601f19601f8201168201806040525081019061021a919061065e565b50565b61022561033b565b73ffffffffffffffffffffffffffffffffffffffff16610243610150565b73ffffffffffffffffffffffffffffffffffffffff1614610299576040517f08c379a000000000000000000000000000000000000000000000000000000000815260040161029090610598565b60405180910390fd5b600073ffffffffffffffffffffffffffffffffffffffff168173ffffffffffffffffffffffffffffffffffffffff161415610309576040517f08c379a0000000000000000000000000000000000000000000000000000000008152600401610300906106fd565b60405180910390fd5b61031281610343565b50565b600160009054906101000a900473ffffffffffffffffffffffffffffffffffffffff1681565b600033905090565b60008060009054906101000a900473ffffffffffffffffffffffffffffffffffffffff169050816000806101000a81548173ffffffffffffffffffffffffffffffffffffffff021916908373ffffffffffffffffffffffffffffffffffffffff1602179055508173ffffffffffffffffffffffffffffffffffffffff168173ffffffffffffffffffffffffffffffffffffffff167f8be0079c531659141344cd1fd0a4f28419497f9722a3daafe3b4186f6b6457e060405160405180910390a35050565b600073ffffffffffffffffffffffffffffffffffffffff82169050919050565b600061043282610407565b9050919050565b61044281610427565b82525050565b600060208201905061045d6000830184610439565b92915050565b600080fd5b61047181610427565b811461047c57600080fd5b50565b60008135905061048e81610468565b92915050565b6000602082840312156104aa576104a9610463565b5b60006104b88482850161047f565b91505092915050565b6000819050919050565b60006104e66104e16104dc84610407565b6104c1565b610407565b9050919050565b60006104f8826104cb565b9050919050565b600061050a826104ed565b9050919050565b61051a816104ff565b82525050565b60006020820190506105356000830184610511565b92915050565b600082825260208201905092915050565b7f4f776e61626c653a2063616c6c6572206973206e6f7420746865206f776e6572600082015250565b600061058260208361053b565b915061058d8261054c565b602082019050919050565b600060208201905081810360008301526105b181610575565b9050919050565b6000819050919050565b6000819050919050565b60006105e76105e26105dd846105b8565b6104c1565b6105c2565b9050919050565b6105f7816105cc565b82525050565b60006040820190506106126000830185610439565b61061f60208301846105ee565b9392505050565b60008115159050919050565b61063b81610626565b811461064657600080fd5b50565b60008151905061065881610632565b92915050565b60006020828403121561067457610673610463565b5b600061068284828501610649565b91505092915050565b7f4f776e61626c653a206e6577206f776e657220697320746865207a65726f206160008201527f6464726573730000000000000000000000000000000000000000000000000000602082015250565b60006106e760268361053b565b91506106f28261068b565b604082019050919050565b60006020820190508181036000830152610716816106da565b905091905056fea264697066735822122000dc2291649e99c1bdd557ba6b8eff28e243b49ba72f47a2b375039bdfe3224f64736f6c634300080b0033",
  "linkReferences": {},
  "deployedLinkReferences": {}
}