{
  "_format": "hh-sol-artifact-1",
  "contractName": "Minting",
  "sourceName": "contracts/minting.sol",
  "abi": [
    {
      "inputs": [],
      "stateMutability": "nonpayable",
      "type": "constructor"
    },
    {
      "anonymous": false,
      "inputs": [
        {
          "indexed": true,
          "internalType": "address",
          "name": "owner",
          "type": "address"
        },
        {
          "indexed": true,
          "internalType": "address",
          "name": "spender",
          "type": "address"
        },
        {
          "indexed": false,
          "internalType": "uint256",
          "name": "value",
          "type": "uint256"
        }
      ],
      "name": "Approval",
      "type": "event"
    },
    {
      "anonymous": false,
      "inputs": [
        {
          "indexed": true,
          "internalType": "address",
          "name": "from",
          "type": "address"
        },
        {
          "indexed": true,
          "internalType": "address",
          "name": "to",
          "type": "address"
        },
        {
          "indexed": false,
          "internalType": "uint256",
          "name": "value",
          "type": "uint256"
        }
      ],
      "name": "Transfer",
      "type": "event"
    },
    {
      "inputs": [
        {
          "internalType": "address",
          "name": "owner",
          "type": "address"
        },
        {
          "internalType": "address",
          "name": "spender",
          "type": "address"
        }
      ],
      "name": "allowance",
      "outputs": [
        {
          "internalType": "uint256",
          "name": "",
          "type": "uint256"
        }
      ],
      "stateMutability": "view",
      "type": "function"
    },
    {
      "inputs": [
        {
          "internalType": "address",
          "name": "spender",
          "type": "address"
        },
        {
          "internalType": "uint256",
          "name": "amount",
          "type": "uint256"
        }
      ],
      "name": "approve",
      "outputs": [
        {
          "internalType": "bool",
          "name": "",
          "type": "bool"
        }
      ],
      "stateMutability": "nonpayable",
      "type": "function"
    },
    {
      "inputs": [
        {
          "internalType": "address",
          "name": "account",
          "type": "address"
        }
      ],
      "name": "balanceOf",
      "outputs": [
        {
          "internalType": "uint256",
          "name": "",
          "type": "uint256"
        }
      ],
      "stateMutability": "view",
      "type": "function"
    },
    {
      "inputs": [],
      "name": "decimals",
      "outputs": [
        {
          "internalType": "uint8",
          "name": "",
          "type": "uint8"
        }
      ],
      "stateMutability": "view",
      "type": "function"
    },
    {
      "inputs": [
        {
          "internalType": "address",
          "name": "spender",
          "type": "address"
        },
        {
          "internalType": "uint256",
          "name": "subtractedValue",
          "type": "uint256"
        }
      ],
      "name": "decreaseAllowance",
      "outputs": [
        {
          "internalType": "bool",
          "name": "",
          "type": "bool"
        }
      ],
      "stateMutability": "nonpayable",
      "type": "function"
    },
    {
      "inputs": [
        {
          "internalType": "address",
          "name": "spender",
          "type": "address"
        },
        {
          "internalType": "uint256",
          "name": "addedValue",
          "type": "uint256"
        }
      ],
      "name": "increaseAllowance",
      "outputs": [
        {
          "internalType": "bool",
          "name": "",
          "type": "bool"
        }
      ],
      "stateMutability": "nonpayable",
      "type": "function"
    },
    {
      "inputs": [],
      "name": "mint",
      "outputs": [],
      "stateMutability": "nonpayable",
      "type": "function"
    },
    {
      "inputs": [],
      "name": "name",
      "outputs": [
        {
          "internalType": "string",
          "name": "",
          "type": "string"
        }
      ],
      "stateMutability": "view",
      "type": "function"
    },
    {
      "inputs": [],
      "name": "symbol",
      "outputs": [
        {
          "internalType": "string",
          "name": "",
          "type": "string"
        }
      ],
      "stateMutability": "view",
      "type": "function"
    },
    {
      "inputs": [],
      "name": "totalSupply",
      "outputs": [
        {
          "internalType": "uint256",
          "name": "",
          "type": "uint256"
        }
      ],
      "stateMutability": "view",
      "type": "function"
    },
    {
      "inputs": [
        {
          "internalType": "address",
          "name": "to",
          "type": "address"
        },
        {
          "internalType": "uint256",
          "name": "amount",
          "type": "uint256"
        }
      ],
      "name": "transfer",
      "outputs": [
        {
          "internalType": "bool",
          "name": "",
          "type": "bool"
        }
      ],
      "stateMutability": "nonpayable",
      "type": "function"
    },
    {
      "inputs": [
        {
          "internalType": "address",
          "name": "from",
          "type": "address"
        },
        {
          "internalType": "address",
          "name": "to",
          "type": "address"
        },
        {
          "internalType": "uint256",
          "name": "amount",
          "type": "uint256"
        }
      ],
      "name": "transferFrom",
      "outputs": [
        {
          "internalType": "bool",
          "name": "",
          "type": "bool"
        }
      ],
      "stateMutability": "nonpayable",
      "type": "function"
    }
  ],
  "bytecode": "0x60806040523480156200001157600080fd5b506040518060400160405280600481526020017f7a6b4944000000000000000000000000000000000000000000000000000000008152506040518060400160405280600981526020017f7a6b4944546f6b656e0000000000000000000000000000000000000000000000815250816003908051906020019062000096929190620000b8565b508060049080519060200190620000af929190620000b8565b505050620001cd565b828054620000c69062000197565b90600052602060002090601f016020900481019282620000ea576000855562000136565b82601f106200010557805160ff191683800117855562000136565b8280016001018555821562000136579182015b828111156200013557825182559160200191906001019062000118565b5b50905062000145919062000149565b5090565b5b80821115620001645760008160009055506001016200014a565b5090565b7f4e487b7100000000000000000000000000000000000000000000000000000000600052602260045260246000fd5b60006002820490506001821680620001b057607f821691505b60208210811415620001c757620001c662000168565b5b50919050565b61164f80620001dd6000396000f3fe608060405234801561001057600080fd5b50600436106100b45760003560e01c80633950935111610071578063395093511461017d57806370a08231146101ad57806395d89b41146101dd578063a457c2d7146101fb578063a9059cbb1461022b578063dd62ed3e1461025b576100b4565b806306fdde03146100b9578063095ea7b3146100d75780631249c58b1461010757806318160ddd1461011157806323b872dd1461012f578063313ce5671461015f575b600080fd5b6100c161028b565b6040516100ce9190610cc5565b60405180910390f35b6100f160048036038101906100ec9190610d80565b61031d565b6040516100fe9190610ddb565b60405180910390f35b61010f610340565b005b61011961036e565b6040516101269190610e05565b60405180910390f35b61014960048036038101906101449190610e20565b610378565b6040516101569190610ddb565b60405180910390f35b6101676103a7565b6040516101749190610e8f565b60405180910390f35b61019760048036038101906101929190610d80565b6103b0565b6040516101a49190610ddb565b60405180910390f35b6101c760048036038101906101c29190610eaa565b6103e7565b6040516101d49190610e05565b60405180910390f35b6101e561042f565b6040516101f29190610cc5565b60405180910390f35b61021560048036038101906102109190610d80565b6104c1565b6040516102229190610ddb565b60405180910390f35b61024560048036038101906102409190610d80565b610538565b6040516102529190610ddb565b60405180910390f35b61027560048036038101906102709190610ed7565b61055b565b6040516102829190610e05565b60405180910390f35b60606003805461029a90610f46565b80601f01602080910402602001604051908101604052809291908181526020018280546102c690610f46565b80156103135780601f106102e857610100808354040283529160200191610313565b820191906000526020600020905b8154815290600101906020018083116102f657829003601f168201915b5050505050905090565b6000806103286105e2565b90506103358185856105ea565b600191505092915050565b61036c3361034c6103a7565b60ff16600a61035b91906110da565b60646103679190611125565b6107b5565b565b6000600254905090565b6000806103836105e2565b9050610390858285610915565b61039b8585856109a1565b60019150509392505050565b60006012905090565b6000806103bb6105e2565b90506103dc8185856103cd858961055b565b6103d7919061117f565b6105ea565b600191505092915050565b60008060008373ffffffffffffffffffffffffffffffffffffffff1673ffffffffffffffffffffffffffffffffffffffff168152602001908152602001600020549050919050565b60606004805461043e90610f46565b80601f016020809104026020016040519081016040528092919081815260200182805461046a90610f46565b80156104b75780601f1061048c576101008083540402835291602001916104b7565b820191906000526020600020905b81548152906001019060200180831161049a57829003601f168201915b5050505050905090565b6000806104cc6105e2565b905060006104da828661055b565b90508381101561051f576040517f08c379a000000000000000000000000000000000000000000000000000000000815260040161051690611247565b60405180910390fd5b61052c82868684036105ea565b60019250505092915050565b6000806105436105e2565b90506105508185856109a1565b600191505092915050565b6000600160008473ffffffffffffffffffffffffffffffffffffffff1673ffffffffffffffffffffffffffffffffffffffff16815260200190815260200160002060008373ffffffffffffffffffffffffffffffffffffffff1673ffffffffffffffffffffffffffffffffffffffff16815260200190815260200160002054905092915050565b600033905090565b600073ffffffffffffffffffffffffffffffffffffffff168373ffffffffffffffffffffffffffffffffffffffff16141561065a576040517f08c379a0000000000000000000000000000000000000000000000000000000008152600401610651906112d9565b60405180910390fd5b600073ffffffffffffffffffffffffffffffffffffffff168273ffffffffffffffffffffffffffffffffffffffff1614156106ca576040517f08c379a00000000000000000000000000000000000000000000000000000000081526004016106c19061136b565b60405180910390fd5b80600160008573ffffffffffffffffffffffffffffffffffffffff1673ffffffffffffffffffffffffffffffffffffffff16815260200190815260200160002060008473ffffffffffffffffffffffffffffffffffffffff1673ffffffffffffffffffffffffffffffffffffffff168152602001908152602001600020819055508173ffffffffffffffffffffffffffffffffffffffff168373ffffffffffffffffffffffffffffffffffffffff167f8c5be1e5ebec7d5bd14f71427d1e84f3dd0314c0f7b2291e5b200ac8c7c3b925836040516107a89190610e05565b60405180910390a3505050565b600073ffffffffffffffffffffffffffffffffffffffff168273ffffffffffffffffffffffffffffffffffffffff161415610825576040517f08c379a000000000000000000000000000000000000000000000000000000000815260040161081c906113d7565b60405180910390fd5b61083160008383610c22565b8060026000828254610843919061117f565b92505081905550806000808473ffffffffffffffffffffffffffffffffffffffff1673ffffffffffffffffffffffffffffffffffffffff1681526020019081526020016000206000828254610898919061117f565b925050819055508173ffffffffffffffffffffffffffffffffffffffff16600073ffffffffffffffffffffffffffffffffffffffff167fddf252ad1be2c89b69c2b068fc378daa952ba7f163c4a11628f55a4df523b3ef836040516108fd9190610e05565b60405180910390a361091160008383610c27565b5050565b6000610921848461055b565b90507fffffffffffffffffffffffffffffffffffffffffffffffffffffffffffffffff811461099b578181101561098d576040517f08c379a000000000000000000000000000000000000000000000000000000000815260040161098490611443565b60405180910390fd5b61099a84848484036105ea565b5b50505050565b600073ffffffffffffffffffffffffffffffffffffffff168373ffffffffffffffffffffffffffffffffffffffff161415610a11576040517f08c379a0000000000000000000000000000000000000000000000000000000008152600401610a08906114d5565b60405180910390fd5b600073ffffffffffffffffffffffffffffffffffffffff168273ffffffffffffffffffffffffffffffffffffffff161415610a81576040517f08c379a0000000000000000000000000000000000000000000000000000000008152600401610a7890611567565b60405180910390fd5b610a8c838383610c22565b60008060008573ffffffffffffffffffffffffffffffffffffffff1673ffffffffffffffffffffffffffffffffffffffff16815260200190815260200160002054905081811015610b12576040517f08c379a0000000000000000000000000000000000000000000000000000000008152600401610b09906115f9565b60405180910390fd5b8181036000808673ffffffffffffffffffffffffffffffffffffffff1673ffffffffffffffffffffffffffffffffffffffff16815260200190815260200160002081905550816000808573ffffffffffffffffffffffffffffffffffffffff1673ffffffffffffffffffffffffffffffffffffffff1681526020019081526020016000206000828254610ba5919061117f565b925050819055508273ffffffffffffffffffffffffffffffffffffffff168473ffffffffffffffffffffffffffffffffffffffff167fddf252ad1be2c89b69c2b068fc378daa952ba7f163c4a11628f55a4df523b3ef84604051610c099190610e05565b60405180910390a3610c1c848484610c27565b50505050565b505050565b505050565b600081519050919050565b600082825260208201905092915050565b60005b83811015610c66578082015181840152602081019050610c4b565b83811115610c75576000848401525b50505050565b6000601f19601f8301169050919050565b6000610c9782610c2c565b610ca18185610c37565b9350610cb1818560208601610c48565b610cba81610c7b565b840191505092915050565b60006020820190508181036000830152610cdf8184610c8c565b905092915050565b600080fd5b600073ffffffffffffffffffffffffffffffffffffffff82169050919050565b6000610d1782610cec565b9050919050565b610d2781610d0c565b8114610d3257600080fd5b50565b600081359050610d4481610d1e565b92915050565b6000819050919050565b610d5d81610d4a565b8114610d6857600080fd5b50565b600081359050610d7a81610d54565b92915050565b60008060408385031215610d9757610d96610ce7565b5b6000610da585828601610d35565b9250506020610db685828601610d6b565b9150509250929050565b60008115159050919050565b610dd581610dc0565b82525050565b6000602082019050610df06000830184610dcc565b92915050565b610dff81610d4a565b82525050565b6000602082019050610e1a6000830184610df6565b92915050565b600080600060608486031215610e3957610e38610ce7565b5b6000610e4786828701610d35565b9350506020610e5886828701610d35565b9250506040610e6986828701610d6b565b9150509250925092565b600060ff82169050919050565b610e8981610e73565b82525050565b6000602082019050610ea46000830184610e80565b92915050565b600060208284031215610ec057610ebf610ce7565b5b6000610ece84828501610d35565b91505092915050565b60008060408385031215610eee57610eed610ce7565b5b6000610efc85828601610d35565b9250506020610f0d85828601610d35565b9150509250929050565b7f4e487b7100000000000000000000000000000000000000000000000000000000600052602260045260246000fd5b60006002820490506001821680610f5e57607f821691505b60208210811415610f7257610f71610f17565b5b50919050565b7f4e487b7100000000000000000000000000000000000000000000000000000000600052601160045260246000fd5b60008160011c9050919050565b6000808291508390505b6001851115610ffe57808604811115610fda57610fd9610f78565b5b6001851615610fe95780820291505b8081029050610ff785610fa7565b9450610fbe565b94509492505050565b60008261101757600190506110d3565b8161102557600090506110d3565b816001811461103b576002811461104557611074565b60019150506110d3565b60ff84111561105757611056610f78565b5b8360020a91508482111561106e5761106d610f78565b5b506110d3565b5060208310610133831016604e8410600b84101617156110a95782820a9050838111156110a4576110a3610f78565b5b6110d3565b6110b68484846001610fb4565b925090508184048111156110cd576110cc610f78565b5b81810290505b9392505050565b60006110e582610d4a565b91506110f083610d4a565b925061111d7fffffffffffffffffffffffffffffffffffffffffffffffffffffffffffffffff8484611007565b905092915050565b600061113082610d4a565b915061113b83610d4a565b9250817fffffffffffffffffffffffffffffffffffffffffffffffffffffffffffffffff048311821515161561117457611173610f78565b5b828202905092915050565b600061118a82610d4a565b915061119583610d4a565b9250827fffffffffffffffffffffffffffffffffffffffffffffffffffffffffffffffff038211156111ca576111c9610f78565b5b828201905092915050565b7f45524332303a2064656372656173656420616c6c6f77616e63652062656c6f7760008201527f207a65726f000000000000000000000000000000000000000000000000000000602082015250565b6000611231602583610c37565b915061123c826111d5565b604082019050919050565b6000602082019050818103600083015261126081611224565b9050919050565b7f45524332303a20617070726f76652066726f6d20746865207a65726f2061646460008201527f7265737300000000000000000000000000000000000000000000000000000000602082015250565b60006112c3602483610c37565b91506112ce82611267565b604082019050919050565b600060208201905081810360008301526112f2816112b6565b9050919050565b7f45524332303a20617070726f766520746f20746865207a65726f20616464726560008201527f7373000000000000000000000000000000000000000000000000000000000000602082015250565b6000611355602283610c37565b9150611360826112f9565b604082019050919050565b6000602082019050818103600083015261138481611348565b9050919050565b7f45524332303a206d696e7420746f20746865207a65726f206164647265737300600082015250565b60006113c1601f83610c37565b91506113cc8261138b565b602082019050919050565b600060208201905081810360008301526113f0816113b4565b9050919050565b7f45524332303a20696e73756666696369656e7420616c6c6f77616e6365000000600082015250565b600061142d601d83610c37565b9150611438826113f7565b602082019050919050565b6000602082019050818103600083015261145c81611420565b9050919050565b7f45524332303a207472616e736665722066726f6d20746865207a65726f20616460008201527f6472657373000000000000000000000000000000000000000000000000000000602082015250565b60006114bf602583610c37565b91506114ca82611463565b604082019050919050565b600060208201905081810360008301526114ee816114b2565b9050919050565b7f45524332303a207472616e7366657220746f20746865207a65726f206164647260008201527f6573730000000000000000000000000000000000000000000000000000000000602082015250565b6000611551602383610c37565b915061155c826114f5565b604082019050919050565b6000602082019050818103600083015261158081611544565b9050919050565b7f45524332303a207472616e7366657220616d6f756e742065786365656473206260008201527f616c616e63650000000000000000000000000000000000000000000000000000602082015250565b60006115e3602683610c37565b91506115ee82611587565b604082019050919050565b60006020820190508181036000830152611612816115d6565b905091905056fea264697066735822122005a0370842530b85df8e6374d4984e424a7fd0f46cf45e18a008262b74adc05964736f6c634300080b0033",
  "linkReferences": {},
  "deployedLinkReferences": {}
}