{
  "_format": "hh-sol-artifact-1",
  "contractName": "Voting",
  "sourceName": "contracts/voting.sol",
  "abi": [
    {
      "inputs": [],
      "stateMutability": "nonpayable",
      "type": "constructor"
    },
    {
      "inputs": [
        {
          "internalType": "address",
          "name": "",
          "type": "address"
        }
      ],
      "name": "addresstoNullifier",
      "outputs": [
        {
          "internalType": "uint256",
          "name": "",
          "type": "uint256"
        }
      ],
      "stateMutability": "view",
      "type": "function"
    },
    {
      "inputs": [],
      "name": "candidateA",
      "outputs": [
        {
          "internalType": "uint8",
          "name": "",
          "type": "uint8"
        }
      ],
      "stateMutability": "view",
      "type": "function"
    },
    {
      "inputs": [],
      "name": "candidateB",
      "outputs": [
        {
          "internalType": "uint8",
          "name": "",
          "type": "uint8"
        }
      ],
      "stateMutability": "view",
      "type": "function"
    },
    {
      "inputs": [
        {
          "internalType": "uint256",
          "name": "",
          "type": "uint256"
        }
      ],
      "name": "candidateList",
      "outputs": [
        {
          "internalType": "bytes32",
          "name": "",
          "type": "bytes32"
        }
      ],
      "stateMutability": "view",
      "type": "function"
    },
    {
      "inputs": [
        {
          "internalType": "uint8",
          "name": "candidate",
          "type": "uint8"
        }
      ],
      "name": "totalVotesFor",
      "outputs": [
        {
          "internalType": "uint256",
          "name": "",
          "type": "uint256"
        }
      ],
      "stateMutability": "view",
      "type": "function"
    },
    {
      "inputs": [
        {
          "internalType": "uint8",
          "name": "candidate",
          "type": "uint8"
        }
      ],
      "name": "validCandidate",
      "outputs": [
        {
          "internalType": "bool",
          "name": "",
          "type": "bool"
        }
      ],
      "stateMutability": "nonpayable",
      "type": "function"
    },
    {
      "inputs": [
        {
          "internalType": "uint8",
          "name": "candidate",
          "type": "uint8"
        },
        {
          "internalType": "address",
          "name": "wallet",
          "type": "address"
        },
        {
          "internalType": "uint256",
          "name": "voter",
          "type": "uint256"
        },
        {
          "internalType": "uint256",
          "name": "votes",
          "type": "uint256"
        }
      ],
      "name": "voteForCandidate",
      "outputs": [],
      "stateMutability": "nonpayable",
      "type": "function"
    },
    {
      "inputs": [
        {
          "internalType": "address",
          "name": "voter",
          "type": "address"
        }
      ],
      "name": "voterVotesCast",
      "outputs": [
        {
          "internalType": "uint256",
          "name": "",
          "type": "uint256"
        }
      ],
      "stateMutability": "view",
      "type": "function"
    },
    {
      "inputs": [
        {
          "internalType": "address",
          "name": "voter",
          "type": "address"
        }
      ],
      "name": "voterVotesRecognised",
      "outputs": [
        {
          "internalType": "uint256",
          "name": "",
          "type": "uint256"
        }
      ],
      "stateMutability": "view",
      "type": "function"
    },
    {
      "inputs": [
        {
          "internalType": "uint256",
          "name": "",
          "type": "uint256"
        }
      ],
      "name": "votesCast",
      "outputs": [
        {
          "internalType": "uint256",
          "name": "",
          "type": "uint256"
        }
      ],
      "stateMutability": "view",
      "type": "function"
    },
    {
      "inputs": [
        {
          "internalType": "uint8",
          "name": "",
          "type": "uint8"
        }
      ],
      "name": "votesReceived",
      "outputs": [
        {
          "internalType": "uint256",
          "name": "",
          "type": "uint256"
        }
      ],
      "stateMutability": "view",
      "type": "function"
    },
    {
      "inputs": [
        {
          "internalType": "uint256",
          "name": "",
          "type": "uint256"
        }
      ],
      "name": "votesRecognised",
      "outputs": [
        {
          "internalType": "uint256",
          "name": "",
          "type": "uint256"
        }
      ],
      "stateMutability": "view",
      "type": "function"
    }
  ],
  "bytecode": "0x608060405234801561001057600080fd5b506000600560006101000a81548160ff021916908360ff1602179055506001600560016101000a81548160ff021916908360ff1602179055506109ba806100586000396000f3fe608060405234801561001057600080fd5b50600436106100b45760003560e01c8063816dad8a11610071578063816dad8a146101b357806393bf341e146101e3578063a0b867be14610213578063b13c744b14610243578063f96d35a714610273578063ff0bee6e146102a3576100b4565b80630b544ad0146100b9578063153af743146100e957806328383cbd1461011957806354b976d0146101495780635852befa146101675780636f6de66c14610197575b600080fd5b6100d360048036038101906100ce919061068b565b6102c1565b6040516100e091906106d1565b60405180910390f35b61010360048036038101906100fe919061068b565b6102d9565b6040516101109190610707565b60405180910390f35b610133600480360381019061012e9190610780565b6102f6565b60405161014091906106d1565b60405180910390f35b610151610352565b60405161015e91906107bc565b60405180910390f35b610181600480360381019061017c919061068b565b610365565b60405161018e91906106d1565b60405180910390f35b6101b160048036038101906101ac9190610803565b610387565b005b6101cd60048036038101906101c89190610780565b6104b2565b6040516101da91906106d1565b60405180910390f35b6101fd60048036038101906101f89190610780565b61050e565b60405161020a91906106d1565b60405180910390f35b61022d6004803603810190610228919061086a565b610526565b60405161023a91906106d1565b60405180910390f35b61025d6004803603810190610258919061086a565b61053e565b60405161026a91906108b0565b60405180910390f35b61028d6004803603810190610288919061086a565b610562565b60405161029a91906106d1565b60405180910390f35b6102ab61057a565b6040516102b891906107bc565b60405180910390f35b60006020528060005260406000206000915090505481565b6000808260ff1614806102ef575060018260ff16145b9050919050565b600060026000600360008573ffffffffffffffffffffffffffffffffffffffff1673ffffffffffffffffffffffffffffffffffffffff168152602001908152602001600020548152602001908152602001600020549050919050565b600560019054906101000a900460ff1681565b60008060008360ff1660ff168152602001908152602001600020549050919050565b6000811161039457600080fd5b61039d846102d9565b6103a657600080fd5b81600360008573ffffffffffffffffffffffffffffffffffffffff1673ffffffffffffffffffffffffffffffffffffffff168152602001908152602001600020819055508060016000848152602001908152602001600020819055506000610420600160008581526020019081526020016000205461058d565b905060026000848152602001908152602001600020546000808760ff1660ff168152602001908152602001600020600082825461045d91906108fa565b92505081905550806000808760ff1660ff168152602001908152602001600020600082825461048c919061092e565b925050819055508060026000858152602001908152602001600020819055505050505050565b600060016000600360008573ffffffffffffffffffffffffffffffffffffffff1673ffffffffffffffffffffffffffffffffffffffff168152602001908152602001600020548152602001908152602001600020549050919050565b60036020528060005260406000206000915090505481565b60016020528060005260406000206000915090505481565b6004818154811061054e57600080fd5b906000526020600020016000915090505481565b60026020528060005260406000206000915090505481565b600560009054906101000a900460ff1681565b600060018210156105a15760009050610648565b60048210156105b35760019050610648565b60098210156105c55760029050610648565b60108210156105d75760039050610648565b60198210156105e95760049050610648565b60248210156105fb5760059050610648565b603182101561060d5760069050610648565b604082101561061f5760079050610648565b60518210156106315760089050610648565b60648210156106435760099050610648565b600a90505b919050565b600080fd5b600060ff82169050919050565b61066881610652565b811461067357600080fd5b50565b6000813590506106858161065f565b92915050565b6000602082840312156106a1576106a061064d565b5b60006106af84828501610676565b91505092915050565b6000819050919050565b6106cb816106b8565b82525050565b60006020820190506106e660008301846106c2565b92915050565b60008115159050919050565b610701816106ec565b82525050565b600060208201905061071c60008301846106f8565b92915050565b600073ffffffffffffffffffffffffffffffffffffffff82169050919050565b600061074d82610722565b9050919050565b61075d81610742565b811461076857600080fd5b50565b60008135905061077a81610754565b92915050565b6000602082840312156107965761079561064d565b5b60006107a48482850161076b565b91505092915050565b6107b681610652565b82525050565b60006020820190506107d160008301846107ad565b92915050565b6107e0816106b8565b81146107eb57600080fd5b50565b6000813590506107fd816107d7565b92915050565b6000806000806080858703121561081d5761081c61064d565b5b600061082b87828801610676565b945050602061083c8782880161076b565b935050604061084d878288016107ee565b925050606061085e878288016107ee565b91505092959194509250565b6000602082840312156108805761087f61064d565b5b600061088e848285016107ee565b91505092915050565b6000819050919050565b6108aa81610897565b82525050565b60006020820190506108c560008301846108a1565b92915050565b7f4e487b7100000000000000000000000000000000000000000000000000000000600052601160045260246000fd5b6000610905826106b8565b9150610910836106b8565b925082821015610923576109226108cb565b5b828203905092915050565b6000610939826106b8565b9150610944836106b8565b9250827fffffffffffffffffffffffffffffffffffffffffffffffffffffffffffffffff03821115610979576109786108cb565b5b82820190509291505056fea2646970667358221220a811b9805881b1c1f075fe8598ec2574416483cfa5ddac2c0d98959761a5f9a464736f6c634300080b0033",
  "linkReferences": {},
  "deployedLinkReferences": {}
}