{
  "_format": "hh-sol-artifact-1",
  "contractName": "Voting",
  "sourceName": "contracts/voting.sol",
  "abi": [
    {
      "inputs": [],
      "stateMutability": "nonpayable",
      "type": "constructor"
    },
    {
      "inputs": [
        {
          "internalType": "address",
          "name": "",
          "type": "address"
        }
      ],
      "name": "addresstoNullifier",
      "outputs": [
        {
          "internalType": "uint256",
          "name": "",
          "type": "uint256"
        }
      ],
      "stateMutability": "view",
      "type": "function"
    },
    {
      "inputs": [],
      "name": "candidateA",
      "outputs": [
        {
          "internalType": "uint8",
          "name": "",
          "type": "uint8"
        }
      ],
      "stateMutability": "view",
      "type": "function"
    },
    {
      "inputs": [],
      "name": "candidateB",
      "outputs": [
        {
          "internalType": "uint8",
          "name": "",
          "type": "uint8"
        }
      ],
      "stateMutability": "view",
      "type": "function"
    },
    {
      "inputs": [
        {
          "internalType": "uint256",
          "name": "",
          "type": "uint256"
        }
      ],
      "name": "candidateList",
      "outputs": [
        {
          "internalType": "bytes32",
          "name": "",
          "type": "bytes32"
        }
      ],
      "stateMutability": "view",
      "type": "function"
    },
    {
      "inputs": [
        {
          "internalType": "uint8",
          "name": "candidate",
          "type": "uint8"
        }
      ],
      "name": "totalVotesFor",
      "outputs": [
        {
          "internalType": "uint256",
          "name": "",
          "type": "uint256"
        }
      ],
      "stateMutability": "view",
      "type": "function"
    },
    {
      "inputs": [
        {
          "internalType": "uint8",
          "name": "candidate",
          "type": "uint8"
        }
      ],
      "name": "validCandidate",
      "outputs": [
        {
          "internalType": "bool",
          "name": "",
          "type": "bool"
        }
      ],
      "stateMutability": "nonpayable",
      "type": "function"
    },
    {
      "inputs": [
        {
          "internalType": "uint8",
          "name": "candidate",
          "type": "uint8"
        },
        {
          "internalType": "address",
          "name": "wallet",
          "type": "address"
        },
        {
          "internalType": "uint256",
          "name": "voter",
          "type": "uint256"
        },
        {
          "internalType": "uint256",
          "name": "votes",
          "type": "uint256"
        }
      ],
      "name": "voteForCandidate",
      "outputs": [],
      "stateMutability": "nonpayable",
      "type": "function"
    },
    {
      "inputs": [
        {
          "internalType": "address",
          "name": "voter",
          "type": "address"
        }
      ],
      "name": "voterVotesCast",
      "outputs": [
        {
          "internalType": "uint256",
          "name": "",
          "type": "uint256"
        }
      ],
      "stateMutability": "view",
      "type": "function"
    },
    {
      "inputs": [
        {
          "internalType": "address",
          "name": "voter",
          "type": "address"
        }
      ],
      "name": "voterVotesRecognised",
      "outputs": [
        {
          "internalType": "uint256",
          "name": "",
          "type": "uint256"
        }
      ],
      "stateMutability": "view",
      "type": "function"
    },
    {
      "inputs": [
        {
          "internalType": "uint256",
          "name": "",
          "type": "uint256"
        }
      ],
      "name": "votesCast",
      "outputs": [
        {
          "internalType": "uint256",
          "name": "",
          "type": "uint256"
        }
      ],
      "stateMutability": "view",
      "type": "function"
    },
    {
      "inputs": [
        {
          "internalType": "uint8",
          "name": "",
          "type": "uint8"
        }
      ],
      "name": "votesReceived",
      "outputs": [
        {
          "internalType": "uint256",
          "name": "",
          "type": "uint256"
        }
      ],
      "stateMutability": "view",
      "type": "function"
    },
    {
      "inputs": [
        {
          "internalType": "uint256",
          "name": "",
          "type": "uint256"
        }
      ],
      "name": "votesRecognised",
      "outputs": [
        {
          "internalType": "uint256",
          "name": "",
          "type": "uint256"
        }
      ],
      "stateMutability": "view",
      "type": "function"
    }
  ],
  "bytecode": "0x608060405234801561001057600080fd5b506000600560006101000a81548160ff021916908360ff1602179055506001600560016101000a81548160ff021916908360ff160217905550610944806100586000396000f3fe608060405234801561001057600080fd5b50600436106100b45760003560e01c8063816dad8a11610071578063816dad8a146101b357806393bf341e146101e3578063a0b867be14610213578063b13c744b14610243578063f96d35a714610273578063ff0bee6e146102a3576100b4565b80630b544ad0146100b9578063153af743146100e957806328383cbd1461011957806354b976d0146101495780635852befa146101675780636f6de66c14610197575b600080fd5b6100d360048036038101906100ce9190610649565b6102c1565b6040516100e0919061068f565b60405180910390f35b61010360048036038101906100fe9190610649565b6102d9565b60405161011091906106c5565b60405180910390f35b610133600480360381019061012e919061073e565b6102f6565b604051610140919061068f565b60405180910390f35b610151610352565b60405161015e919061077a565b60405180910390f35b610181600480360381019061017c9190610649565b610365565b60405161018e919061068f565b60405180910390f35b6101b160048036038101906101ac91906107c1565b610387565b005b6101cd60048036038101906101c8919061073e565b610470565b6040516101da919061068f565b60405180910390f35b6101fd60048036038101906101f8919061073e565b6104cc565b60405161020a919061068f565b60405180910390f35b61022d60048036038101906102289190610828565b6104e4565b60405161023a919061068f565b60405180910390f35b61025d60048036038101906102589190610828565b6104fc565b60405161026a919061086e565b60405180910390f35b61028d60048036038101906102889190610828565b610520565b60405161029a919061068f565b60405180910390f35b6102ab610538565b6040516102b8919061077a565b60405180910390f35b60006020528060005260406000206000915090505481565b6000808260ff1614806102ef575060018260ff16145b9050919050565b600060026000600360008573ffffffffffffffffffffffffffffffffffffffff1673ffffffffffffffffffffffffffffffffffffffff168152602001908152602001600020548152602001908152602001600020549050919050565b600560019054906101000a900460ff1681565b60008060008360ff1660ff168152602001908152602001600020549050919050565b6000811161039457600080fd5b61039d846102d9565b6103a657600080fd5b81600360008573ffffffffffffffffffffffffffffffffffffffff1673ffffffffffffffffffffffffffffffffffffffff168152602001908152602001600020819055508060016000848152602001908152602001600020819055506000610420600160008581526020019081526020016000205461054b565b9050806000808760ff1660ff168152602001908152602001600020600082825461044a91906108b8565b925050819055508060026000858152602001908152602001600020819055505050505050565b600060016000600360008573ffffffffffffffffffffffffffffffffffffffff1673ffffffffffffffffffffffffffffffffffffffff168152602001908152602001600020548152602001908152602001600020549050919050565b60036020528060005260406000206000915090505481565b60016020528060005260406000206000915090505481565b6004818154811061050c57600080fd5b906000526020600020016000915090505481565b60026020528060005260406000206000915090505481565b600560009054906101000a900460ff1681565b6000600182101561055f5760009050610606565b60048210156105715760019050610606565b60098210156105835760029050610606565b60108210156105955760039050610606565b60198210156105a75760049050610606565b60248210156105b95760059050610606565b60318210156105cb5760069050610606565b60408210156105dd5760079050610606565b60518210156105ef5760089050610606565b60648210156106015760099050610606565b600a90505b919050565b600080fd5b600060ff82169050919050565b61062681610610565b811461063157600080fd5b50565b6000813590506106438161061d565b92915050565b60006020828403121561065f5761065e61060b565b5b600061066d84828501610634565b91505092915050565b6000819050919050565b61068981610676565b82525050565b60006020820190506106a46000830184610680565b92915050565b60008115159050919050565b6106bf816106aa565b82525050565b60006020820190506106da60008301846106b6565b92915050565b600073ffffffffffffffffffffffffffffffffffffffff82169050919050565b600061070b826106e0565b9050919050565b61071b81610700565b811461072657600080fd5b50565b60008135905061073881610712565b92915050565b6000602082840312156107545761075361060b565b5b600061076284828501610729565b91505092915050565b61077481610610565b82525050565b600060208201905061078f600083018461076b565b92915050565b61079e81610676565b81146107a957600080fd5b50565b6000813590506107bb81610795565b92915050565b600080600080608085870312156107db576107da61060b565b5b60006107e987828801610634565b94505060206107fa87828801610729565b935050604061080b878288016107ac565b925050606061081c878288016107ac565b91505092959194509250565b60006020828403121561083e5761083d61060b565b5b600061084c848285016107ac565b91505092915050565b6000819050919050565b61086881610855565b82525050565b6000602082019050610883600083018461085f565b92915050565b7f4e487b7100000000000000000000000000000000000000000000000000000000600052601160045260246000fd5b60006108c382610676565b91506108ce83610676565b9250827fffffffffffffffffffffffffffffffffffffffffffffffffffffffffffffffff0382111561090357610902610889565b5b82820190509291505056fea26469706673582212200768b0d21b57ffe1848d77f1e9a8dc764bb94b8c1d6e9e8f158d050a891b080864736f6c634300080b0033",
  "linkReferences": {},
  "deployedLinkReferences": {}
}